:100000000C9463000C948B000C948B000C94820570
:100010000C9482050C9482050C948B000C948B003C
:100020000C948B000C948B000C948B000C948B0024
:100030000C948B000C9445070C948B000C948B0053
:100040000C94C8090C948B000C94380A0C94120A76
:100050000C948B000C948B000C948B000C948B00F4
:100060000C94EE030C948B00000000002500280087
:100070002B000000000023002600290000000008DB
:10008000000201000003040700000000000000005F
:1000900000000000240027002A00010204081020AC
:1000A000408001020408102001020408102004040A
:1000B0000404040404040202020202020303030310
:1000C00003037A0A6A0A11241FBECFEFD8E0DEBF0D
:1000D000CDBF11E0A0E0B1E0E0E1FDE102C005909C
:1000E0000D92AE3AB107D9F723E0AEEAB1E001C014
:1000F0001D92A33DB207E1F710E0C2E6D0E004C0D4
:100100002197FE010E94700EC136D107C9F70E94E7
:10011000CE0A0C947B0E0C940000FC01538D448D90
:10012000252F30E0842F90E0821B930B541710F0A2
:10013000CF96089501970895FC01918D828D9817AF
:1001400061F0828DDF01A80FB11D5D968C91928DBB
:100150009F5F9F73928F90E008958FEF9FEF0895B8
:10016000FC01918D828D981731F0828DE80FF11D81
:10017000858D90E008958FEF9FEF0895FC01918D9C
:10018000228D892F90E0805C9F4F821B91098F7395
:100190009927089580E090E0892B29F00E944B0870
:1001A00081110C9400000895833081F028F481308F
:1001B00099F08230A1F008958730A9F08830B9F025
:1001C0008430D1F4809180008F7D03C080918000C5
:1001D0008F7780938000089584B58F7702C084B5AF
:1001E0008F7D84BD08958091B0008F7703C080918A
:1001F000B0008F7D8093B000089585ED8093BC00A2
:100200008091BC0084FDFCCF109293020895409130
:100210004002262F30E0240F311D21323105DCF45D
:10022000209193022430C9F4FC0180E090E086170D
:1002300058F4309140022191DC01A05EBD4FA30F24
:10024000B11D2C930196F3CF80914002680F60930B
:10025000400280E0089581E0089582E00895E091F1
:100260001E02F0911F02309729F010929502109211
:10027000940209940895CF93DF93AC01E091870233
:10028000F09188023097F1F0909197028091960258
:100290009817C0F090E0292F30E02617370754F464
:1002A000D901A250BE4FEA01C20FD31F88818C939F
:1002B0009F5FF1CF1092970260939602CB01DF917E
:1002C000CF910994DF91CF9108950895E09197021D
:1002D00080919602E81730F4F0E0E250FE4F808102
:1002E00090E008958FEF9FEF08959091970280918D
:1002F0009602981750F4E92FF0E0E250FE4F20816B
:1003000030E09F5F9093970202C02FEF3FEFC9014B
:1003100008958091960290E020919702821B9109A6
:100320000895CF93DF9300D0CDB7DEB7CB01642F14
:1003300049835A830E9407014981842F5A81952F4E
:100340000F900F90DF91CF910895CF93DF931F927D
:10035000CDB7DEB7698361E0CE0101960E94070147
:1003600081E090E00F90DF91CF9108952091FC0102
:100370003091FD012817390771F49091FB018091AC
:10038000FA01981741F0E091FB01F0E0E654FE4FCE
:10039000808190E008958FEF9FEF089508951F9357
:1003A000CF93DF93DC015C962D913C915D972115F5
:1003B000310539F481E090E013969C938E93129767
:1003C0003DC05196ED91FC91529750969C9150975B
:1003D000892F80951FB75E964C915E9741FB7727DA
:1003E00070F941FD6095F8944081772311F0492B15
:1003F00001C048234083E9012197F1F748E050818B
:1004000060FF02C0592B01C058235083E901219796
:10041000F1F76695415099F7772321F09081892370
:10042000808303C08081982B90831FBF5C968D9141
:100430009C915D970197F1F721E030E0C901DF91D0
:10044000CF911F9108952091FC013091FD01281753
:10045000390771F48091FA012091FB0190E0805CF2
:100460009F4F821B910960E470E00E94260E089560
:1004700080E090E008952091FC013091FD01281763
:100480003907B9F49091FB018091FA01981789F02E
:10049000E091FB01F0E0E654FE4F80812091FB01EA
:1004A00030E02F5F3F4F2F7333272093FB0190E005
:1004B00008958FEF9FEF08952DE031E0FC01318327
:1004C0002083E091FC01F091FD01E817F90759F450
:1004D000A389B4899C918589809589238C931092F6
:1004E000FD011092FC010895089580E090E00895C8
:1004F0008EBD00000DB407FEFDCF8EB50895CF93DD
:10050000DF939091960280919702981709F479C031
:1005100089E393E00E94750199278631910509F4DA
:1005200044C034F48431910591F04597C1F069C01D
:100530008731910509F45DC0489709F062C01092B7
:10054000AF0180916F008E7F80936F005AC0F89446
:10055000809160008860809360007894FFCF8091E4
:10056000960290E020919702821B9109029764F015
:1005700089E393E00E94750180938E0289E393E002
:100580000E94750180938F0281E0809390026091B8
:10059000900270E080E090E04AE00E94740989E6F1
:1005A00091E0DF91CF910C9454098091960290E0F4
:1005B00020919702821B91090A971CF1C0E0D0E0BC
:1005C00089E393E00E947501FE01EE54FE4F8083A3
:1005D0002196C830D105A1F789E393E00E94750107
:1005E0008093B10189E393E00E9475018093B0018B
:1005F00008C081E08093AF018093AE0180936F00CB
:100600007894DF91CF910895FC01848DDF01A80FCC
:10061000B11DA35ABF4F2C91848D90E001968F732A
:100620009927848FA689B7892C93A089B1898C9149
:1006300080648C93938D848D981306C00288F3890F
:10064000E02D80818F7D80830895CF93DF93282FC5
:1006500030E0F901E458FF4F8491F901E656FF4F6D
:10066000D491F901E255FF4FC491CC2391F081114F
:100670000E94D400EC2FF0E0EE0FFF1FEE58FF4F6A
:10068000A591B491EC91ED2381E090E021F480E01C
:1006900002C080E090E0DF91CF9108951F93CF9347
:1006A000DF93282F30E0F901E458FF4F8491F901DE
:1006B000E656FF4FD491F901E255FF4FC491CC2388
:1006C000C9F0162F81110E94D400EC2FF0E0EE0F3C
:1006D000FF1FE859FF4FA591B4918FB7F8941111FE
:1006E00005C09C91ED2FE095E92302C0EC91ED2B24
:1006F000EC938FBFDF91CF911F9108951F93CF93FC
:10070000DF93182FD62FC42F60E089E00E944E039C
:1007100060E088E00E944E03183069F01930B9F4A7
:1007200080E00E94780280E00E9478028D2F0E9473
:1007300078028C2F0AC08D2F0E9478028C2F0E9485
:10074000780280E00E94780280E00E94780261E0F6
:1007500089E00E944E0361E088E0DF91CF911F9114
:100760000C944E03CF93DF9390E0FC01E656FF4FCD
:100770002491FC01E255FF4F8491882361F190E0C0
:10078000880F991FFC01E057FF4FC591D491FC01E0
:10079000E859FF4FA591B491611109C09FB7F89432
:1007A0008881209582238883EC912E230BC06230B0
:1007B00061F49FB7F8943881822F809583238883D2
:1007C000EC912E2B2C939FBF06C08FB7F894E88135
:1007D0002E2B28838FBFDF91CF9108951F920F9208
:1007E0000FB60F9211242F933F934F935F936F9304
:1007F0007F938F939F93AF93BF93EF93FF938091DA
:10080000B900887F803609F49CC068F5883209F405
:100810005BC090F4803109F454C038F4882309F4A3
:10082000F6C0883009F44DC0F6C0883109F44CC0D8
:10083000803209F45DC0EFC0803409F468C048F428
:10084000803309F455C0883309F0E5C08093630212
:10085000D8C0803509F44FC0883509F45DC08834AC
:1008600009F0D9C0D6C0883909F4C7C0A8F48837C0
:1008700009F467C038F4883609F463C0803709F496
:1008800060C0C9C0883809F4B8C0803909F45FC0B5
:10089000803809F0C0C05BC0803B09F486C038F4E2
:1008A000803A09F466C0883A09F47FC0B4C0803C3D
:1008B00009F4A7C0883C09F4A4C0883B09F48AC0A5
:1008C000AAC08091860210C0909185028091840216
:1008D000981770F5E091850281E08E0F8093850274
:1008E000F0E0EC59FD4F80818093BB0085EC86C021
:1008F000809363028EC0E091850281E08E0F809329
:1009000085028091BB00F0E0EC59FD4F808390910F
:100910008502809184026EC0E091850281E08E0F95
:10092000809385028091BB00F0E0EC59FD4F8083FD
:100930008091920281116DC081E08093910284EADE
:1009400061C083E08093930210926202CFCF8091C6
:100950006202803208F051C0E091620281E08E0FA5
:10096000809362028091BB00F0E0EE5BFD4F8083DC
:10097000BDCF85EC8093BC001092930280916202FF
:10098000803230F4E0916202F0E0EE5BFD4F1082C5
:100990006091620270E0E0919802F091990282E425
:1009A00092E009951092620236C084E0809393022F
:1009B0001092410210924002E0919A02F0919B0243
:1009C000099580914002811105C081E08093400229
:1009D00010922002E091410281E08E0F809341024B
:1009E000F0E0E05EFD4F80818093BB00909141027A
:1009F00080914002981708F479CF85E88093BC0075
:100A00000AC085EC8093BC001092930204C010923F
:100A100063020E94FD00FF91EF91BF91AF919F9102
:100A20008F917F916F915F914F913F912F910F9097
:100A30000FBE0F901F9018950F931F93CF93DF93C6
:100A4000EC01162F042F1B821A8288EE93E0A0E09F
:100A5000B0E08C839D83AE83BF838DE091E099836A
:100A600088831F8A1E8A198E188E1B8E1A8E1D8EE1
:100A70001C8E6E8D6E7F20FB61F96E8F66956170A6
:100A800081E06827842F0E944E0361E0802F0E943E
:100A9000B203402F50E0FA01E656FF4FE491E88B95
:100AA000FA01E255FF4FE491F0E0EE0FFF1FE85925
:100AB000FF4F859194919A8B898B60E0812F0E94E2
:100AC000B2038E8D81FD04C061E0812F0E944E0330
:100AD0001C87612F70E0FB01E656FF4FE491ED8724
:100AE000FB01E255FF4FE491F0E0EE0FFF1FEE58DF
:100AF000FF4F859194919F878E87DF91CF911F91B2
:100B00000F9108951F920F920FB60F9211242F93F9
:100B10003F934F935F936F937F938F939F93AF9385
:100B2000BF93EF93FF93E091FC01F091FD013097AB
:100B300009F451C0968DA685B785858591FF04C0BF
:100B40009C91892329F447C09C91892309F043C0D3
:100B5000A389B4899C918589809589238C93868902
:100B600097890197F1F7608D718DA685B7855585B9
:100B700038E020E0CB010197F1F7822F90E09595C6
:100B80008795282F4C91452309F02068315091F723
:100B9000868D81FD20958091FA0190E001968F73FA
:100BA00099273091FB01381749F0A091FA01B0E084
:100BB000A654BE4F2C938093FA0103C0868D8160AA
:100BC000868F828D938D0197F1F7A389B4899C91CB
:100BD0008589892B8C93FF91EF91BF91AF919F9164
:100BE0008F917F916F915F914F913F912F910F90D6
:100BF0000FBE0F901F901895CF93DF93FC01828D4D
:100C0000938D892B31F1A091FC01B091FD01AE17BC
:100C1000BF07F9F0109751F05396CD91DC9154979E
:100C2000988155968C91809589238883868D8E7FB7
:100C3000868F1092FA011092FB01F093FD01E09370
:100C4000FC01A389B4899C918589892B8C9381E0CF
:100C500001C080E0DF91CF910895EAE8F2E090E0F2
:100C60002191281729F09F5F9430D1F78FEF0895D5
:100C7000892F0895813059F038F0823059F083304F
:100C800069F485E493E008C082EA93E005C083E854
:100C900093E002C084E693E00E94CF018FE99FE0D9
:100CA0000197F1F700C0000008958BE191E004E0A6
:100CB000080FCBE1D1E015E063E188810E943A069C
:100CC0008FE19EE40197F1F700C000001150A1F7F9
:100CD00021960C13F0CFEDCF813059F038F08230EF
:100CE00059F0833071F485E493E008C082EA93E020
:100CF00005C083E893E002C084E693E00E943B02D3
:100D0000982F892F0895813059F038F0823059F0AA
:100D1000833069F485E493E008C082EA93E005C07B
:100D200083E893E002C084E693E00C94230280E021
:100D300090E00895813049F028F0823049F0833006
:100D400051F0089582EA93E008C083E893E005C07B
:100D500084E693E002C085E493E00C94FC050F93D5
:100D60001F93CF93DF93082F162FD42F80918902E2
:100D70000E942D06C82F8C2F0E949A0661E08C2FAE
:100D80000E943A068C2F0E948306892BA1F38C2F98
:100D90000E946C068A3079F76DE08C2F0E943A062B
:100DA000602F8C2F0E943A06612F8C2F0E943A06EA
:100DB0006D2F8C2F0E943A068CE691E0DF91CF9147
:100DC0001F910F910C946609EF92FF920F931F935E
:100DD000CF93DF93C82FD62F7A0140E06CE088E0F4
:100DE0000E947E0340E06CE089E00E947E03DD23E8
:100DF000C1F04FEF4D0F6AE08C2F0E947E038701F8
:100E0000D0E0F80141918F01DF5F6D2F8C2F0E94A0
:100E10007E03D830B1F741E06CE08C2F0E947E0356
:100E200009C0D0E0DF5F40E06D2F8C2F0E947E0371
:100E3000D830C1F747E06BE08C2FDF91CF911F9145
:100E40000F91FF90EF900C947E03CF93DF93C82F08
:100E500061E00E94B203D0E040E06D2F8C2F0E9431
:100E60007E03DF5FD031C1F741E06CE08C2F0E9440
:100E70007E0340E06FE08C2F0E947E0347E06BE032
:100E80008C2FDF91CF910C947E031F920F920FB69F
:100E90000F9211244F925F926F927F928F929F9246
:100EA000AF92BF92CF92DF92EF92FF920F931F9378
:100EB0002F933F934F935F936F937F938F939F9362
:100EC000AF93BF93EF93FF93CF93DF93CDB7DEB78D
:100ED0002897DEBFCDBF8091AE01882309F45BC0A7
:100EE000912C88E0782E8E010F5F1F4FEE24E39443
:100EF000F12C28E0822E800E80E00E942D069816AC
:100F0000D0F5D801E72D1D92EA95E9F72801F801FF
:100F100047E050E05701042E02C0AA0CBB1C0A9403
:100F2000E2F762EB71E06B0120E030E0D6018D91D9
:100F30006D0190E08A219B21892B49F06080C701D7
:100F4000022E01C0880F0A94EAF7862980832F5F5A
:100F50003F4F2830310551F74150510931968E12DB
:100F6000D9CFF20181912F01DB018D93BD018E124A
:100F7000F8CF9394C1CF6091B10142EB51E088E08A
:100F80000E94E4066091B00142EB51E089E00E94CA
:100F9000E4061092AE018091AF018823D1F0109148
:100FA000000140E06CE0112339F089E00E947E03EB
:100FB00041E06CE088E006C088E00E947E0341E0EA
:100FC0006CE089E00E947E0381E08127809300012C
:100FD0000AC040E06CE088E00E947E0340E06CE0E4
:100FE00089E00E947E038EE19BEF909385008093C1
:100FF000840028960FB6F894DEBF0FBECDBFDF91F8
:10100000CF91FF91EF91BF91AF919F918F917F9180
:101010006F915F914F913F912F911F910F91FF9091
:10102000EF90DF90CF90BF90AF909F908F907F9088
:101030006F905F904F900F900FBE0F901F9018957C
:10104000CF92DF92EF92FF920F931F93CF93DF9394
:101050006C017A018B01C0E0D0E0CE15DF0589F08C
:10106000D8016D918D01D601ED91FC910190F08137
:10107000E02DC6010995892B11F47E0102C021964D
:10108000ECCFC701DF91CF911F910F91FF90EF90AF
:10109000DF90CF9008958CE992E00E94BE0021E09D
:1010A000892B09F420E0822F0895880F8093BA00DD
:1010B0008FE291E090939B0280939A028BE391E000
:1010C0009093990280939802109297021092960240
:1010D00010929502109294021092930281E08093F4
:1010E00092021092910261E082E10E944E0361E05F
:1010F00083E10E944E03E9EBF0E080818E7F8083E4
:1011000080818D7F808380E28093B80085E4809326
:10111000BC000895FC01138E128E118E108E178A5A
:10112000168A8FE190E0958F848F8485863108F050
:101130004DC021E030E0378B268B2DE130E0318F40
:10114000208F2DE030E0338F228F9091680088301F
:1011500050F021E08E3008F420E081E001C0880FDB
:101160002A95EAF701C084E0892B80936800848582
:10117000883038F08E3040F0863148F020E030E0A2
:1011800008C02DE630E005C02BE630E002C02CE6BA
:1011900030E0348B238B883030F491E001C0990F1C
:1011A0008A95EAF70EC0282F30E08E3018F42850C8
:1011B000310902C02E50310991E001C0990F2A95E2
:1011C000EAF7958B848D958D0197F1F7CF010C94FB
:1011D000FC050E94760EEF92FF920F931F93CF9320
:1011E000DF93EC0181E0888F9B8D8C8D981305C077
:1011F000E889F989808185FD24C0F62E0B8D10E0E9
:101200000F5F1F4F0F731127E02E8C8DE8120CC05B
:101210000FB607FCFACFE889F989808185FFF5CF01
:10122000CE010E940403F1CF8B8DFE01E80FF11D6A
:10123000E35AFF4FF0820B8FEA89FB89808180623D
:1012400007C0EE89FF896083E889F989808180641D
:10125000808381E090E0DF91CF911F910F91FF900B
:10126000EF900895CF93DF93EC01888D8823C9F028
:10127000EA89FB89808185FD05C0A889B9898C919F
:1012800086FD0FC00FB607FCF5CF808185FFF2CF3A
:10129000A889B9898C9185FFEDCFCE010E94040306
:1012A000E7CFDF91CF910895009769F0FC0101909D
:1012B0000020E9F73197AF01481B590BBC018CE9BD
:1012C00092E00C94200880E090E00895CF93DF93A3
:1012D0000E945409EC0189E691E00E9454098C0FA8
:1012E0009D1FDF91CF9108958F929F92AF92BF92F1
:1012F0000F931F93CF93DF93CDB7DEB7A1970FB6B0
:10130000F894DEBF0FBECDBF19A2423008F44AE008
:101310008E010F5D1F4F842E912CA12CB12CA501A5
:1013200094010E943A0EE62FB901CA010150110939
:10133000EA3014F4E05D01C0E95CD801EC93232BA2
:10134000242B252B61F7C8010E945409A1960FB6E2
:10135000F894DEBF0FBECDBFDF91CF911F910F91EB
:10136000BF90AF909F908F900895CF93DF93682F99
:1013700070E080E090E04AE00E947409EC0189E6A8
:1013800091E00E9454098C0F9D1FDF91CF91089529
:101390001F920F920FB60F9211242F933F938F93AA
:1013A0009F93AF93BF938091CF039091D003A0916F
:1013B000D103B091D2033091CE0326E0230F2D3715
:1013C00020F40296A11DB11D05C029E8230F039644
:1013D000A11DB11D2093CE038093CF039093D00322
:1013E000A093D103B093D2038091CA039091CB0311
:1013F000A091CC03B091CD030196A11DB11D8093A6
:10140000CA039093CB03A093CC03B093CD03BF91B9
:10141000AF919F918F913F912F910F900FBE0F90A1
:101420001F9018951F920F920FB60F9211242F93B1
:101430003F934F935F936F937F938F939F93AF935C
:10144000BF93EF93FF938CE992E00E940403FF9116
:10145000EF91BF91AF919F918F917F916F915F912C
:101460004F913F912F910F900FBE0F901F901895A5
:101470001F920F920FB60F9211242F938F939F9369
:10148000EF93FF93E091AC02F091AD028081E09187
:10149000B202F091B30282FD12C090818091B50238
:1014A0008F5F8F732091B602821751F0E091B502E1
:1014B000F0E0E456FD4F958F8093B50201C0808126
:1014C000FF91EF919F918F912F910F900FBE0F90F1
:1014D0001F90189585E493E00E945C0284E693E0F7
:1014E0000E945C0283E893E00E945C0282EA93E03F
:1014F0000C945C02ECE9F2E01382128288EE93E035
:10150000A0E0B0E084839583A683B7832BE231E02B
:101510003183208325EC30E03587248724EC30E0CC
:101520003787268720EC30E0318B208B21EC30E0B0
:10153000338B228B22EC30E0358B248B26EC30E091
:10154000378B268B118E128E138E148EE9E3F3E007
:101550001382128284839583A683B7838DE391E0FF
:101560009183808321E04FE06EE082EA93E00E9465
:101570001C0521E041E160E183E893E00E941C0545
:1015800021E045E064E084E693E00E941C0521E050
:1015900047E066E085E493E00C941C05CF93DF936D
:1015A0001F92CDB7DEB7789484B5826084BD84B5D0
:1015B000816084BD85B5826085BD85B5816085BD4E
:1015C00080916E00816080936E0010928100809106
:1015D000810082608093810080918100816080938E
:1015E0008100809180008160809380008091B100B3
:1015F00084608093B1008091B00081608093B000DE
:1016000080917A00846080937A0080917A00826071
:1016100080937A0080917A008E7F80937A00809107
:101620007A00806880937A001092C10014BE0FB6D1
:10163000F894A89580916000886180936000109272
:1016400060000FBE1FB7F8948091C103811127C0BD
:10165000E8EBF0E08491E4EAF0E09491E82FF0E028
:10166000EE0FFF1FE057FF4FA591B491EC91E923D6
:1016700021F461E08AE00E944E0361E08AE00E946A
:10168000B2038CB580618CBD8CB580648CBD61E08B
:101690008DE00E94B20361E08BE00E94B203809172
:1016A000C1038F5F8093C1031FBFE091AC02F09133
:1016B000AD0282E08083E091A802F091A90210823D
:1016C000E091AA02F091AB0287E680831092B40207
:1016D000E091B002F091B10286E08083E091AE0229
:1016E000F091AF02808180618083E091AE02F09141
:1016F000AF02808188608083E091AE02F091AF02FA
:10170000808180688083E091AE02F091AF02808199
:101710008F7D808388E00E94250789E00E9425074D
:1017200061E08EE00E944E0361E080E10E944E0382
:1017300061E084E00E944E0361E086E00E944E0377
:1017400082EA93E00E948A0883E893E00E948A0874
:1017500084E693E00E948A0885E493E00E948A0868
:101760008EE19BEF9093850080938400109280001F
:1017700083E08093810086E791E00E946609EE2471
:10178000E3948BE191E0E4E0FE2EF80EFFE7AF2E4C
:10179000F2E0BF2E8091C20381118DC05BE1C52EA6
:1017A00051E0D52EF6010081E02FF0E0E15EFE4F22
:1017B00080810E942503892B09F077C0802F0E9429
:1017C0009A067AE0972EF601108160E0812F0E9440
:1017D0003A06802F0E948306892B09F45EC0812F70
:1017E0000E946C068D3009F058C0812F0E9483063C
:1017F0000297DCF3812F0E94830602970CF44DC000
:10180000812F0E946C06082F812F0E946C06202FCA
:1018100030E0322F2227A901480F511DCA015093F1
:10182000C4034093C3038F379F47A9F410928902E2
:1018300088E00E9455088091BA0081608093BA00C8
:10184000B0928802A092870241E051E06FE088E008
:101850000E94E4060BC0812F0E9483061816190609
:10186000D4F7812F0E946C068093890280918902AF
:10187000F601908124E0943009F490E0843009F47A
:1018800080E0E92FF0E0E657FD4F80839F5F8F5F98
:10189000215089F7E092C20308C09A94992029F058
:1018A0008091C203882309F48ECFFFEFCF1ADF0A9D
:1018B000FC1078CF6FCF8AEA91E00E946609809190
:1018C000C3039091C4038F379F4731F483E291E0C3
:1018D00044E0E42EE80E6FC0809189020E942D063C
:1018E000182F0E949A068CE791E00E946609812FCA
:1018F0000E94830618161906D4F7812F0E946C06E1
:10190000082F0E94B509013029F46AE0812F0E9456
:101910003A06E9CF0E3039F78091C3039091C403A2
:101920008F379F47D9F0812F0E948306181619061A
:10193000D4F7812F0E948306892B81F0812F0E948A
:101940006C060E9455088091BA0081608093BA00AD
:101950008FE792E0909388028093870285E891E078
:101960000E94660941E051E06FE088E00E94E406D1
:10197000ADCF8EE991E00E94660961E0812F0E945F
:101980003A06812F0E948306892B99F3812F0E94AA
:101990006C068A3071F76EE0812F0E943A066F2D37
:1019A000812F0E943A0686EA91E00E946609109211
:1019B00090020E94CA00809190028823A9F08AE9CF
:1019C00091E00E946609F0908F0200918E02802FB4
:1019D0000E942D06182F0E949A06802F0E94B5099A
:1019E000812F0E94B509C5CF95EC892E93E0992EE1
:1019F0002AE8C22E22E0D22E3BE1A32E31E0B32E04
:101A000003E211E0F801F1908F01EF2DF0E0E15ECB
:101A1000FE4F80810E942503892B09F0D9C08F2DAC
:101A20000E949A068FE19EE40197F1F700C0000042
:101A30008F2D0E948306892B09F406C18F2D0E94E9
:101A40006C068093C9030E94B5098091C903813057
:101A500009F48CC020F0833109F4E7C0F5C0F60129
:101A600080818130C9F1F8F0823009F452C08330AE
:101A700009F0EAC0F090C3036090C403FA94F50142
:101A800070806DE0872D0E943A06662D872D0E949A
:101A90003A066F2D872D0E943A0661E0872D0E943D
:101AA0003A0641E060C06090C303F090C403FA942A
:101AB000F50170806DE0872D0E943A066F2D872D0D
:101AC0000E943A06662D872D0E943A0662E0872D15
:101AD0000E943A0642E042C09091C3036090C40362
:101AE0009F3F01F1FF24F394F90EF50170806DE042
:101AF000872D0E943A06662D872D0E943A066F2D8B
:101B0000872D0E943A0663E0872D0E943A0643E043
:101B10002AC06090C3034090C403512CFFEF4F16BE
:101B2000510431F46CE0F50180810E943A068CC0CA
:101B3000F50170806DE0872D0E943A06FF24F39432
:101B4000F40C6F2D872D0E943A06662D872D0E947A
:101B50003A0660E0872D0E943A0640E0662D8F2D00
:101B60000E94AF0671C06F2D862DFACFF501F0806F
:101B70006AE08F2D0E943A06712C711065C08F2D7E
:101B80000E948306892BD9F38F2D0E946C068D301D
:101B9000B1F78F2D0E9483060397DCF38F2D0E94EF
:101BA00083067724739403970CF44EC08F2D0E9404
:101BB0006C06682E8F2D0E946C06682F8F2D69830E
:101BC0000E946C06482F6981862D0E94AF06D5CFF2
:101BD000F4018081882359F1FFEF21EE44E0F150B8
:101BE00020404040E1F700C0000085E0782E6FE023
:101BF0008F2D0E943A068FE19EE40197F1F700C015
:101C000000008F2D0E948306892B21F47A94711095
:101C1000EECF0BC08F2D0E946C068031A9F08F2D66
:101C20000E946C06882381F0F1CF0E94550680E067
:101C3000F40181934F01FFEFCF1ADF0A2FEFA21AB1
:101C4000B20AE012DFCEB5CE81E0F2CF97FB072ECD
:101C500016F4009407D077FD09D00E945C0E07FCB3
:101C600005D03EF4909581959F4F089570956195AC
:101C70007F4F0895A1E21A2EAA1BBB1BFD010DC0C8
:101C8000AA1FBB1FEE1FFF1FA217B307E407F5072C
:101C900020F0A21BB30BE40BF50B661F771F881F08
:101CA000991F1A9469F760957095809590959B019E
:101CB000AC01BD01CF010895AA1BBB1B51E107C0B8
:101CC000AA1FBB1FA617B70710F0A61BB70B881FCC
:101CD000991F5A95A9F780959095BC01CD0108955B
:101CE000EE0FFF1F0590F491E02D099481E090E044
:101CF000F8940C947B0E10E0C2E6D0E004C0FE0124
:101D00000E94700E2196C336D107C9F7F894FFCF11
:101D100001FF00FF00FF00FF0000000000CF0120D6
:101D2000087502CE0123023B02B601000102030E38
:101D30001004060001020300000000EB0820088DDB
:101D4000003209BE009C00B00000000000A5019117
:101D5000017502650189017501660100000000E955
:101D600008200875027402E908E908E90800000083
:101D700000E9082008750274020D0A0073656E649C
:101D80002061646472007265736574006932632057
:101D90006C6F6F7000693263206164647265737385
:101DA00020726563656976656400693263007271EB
:0E1DB0002073656E64006932632066696E0000
:00000001FF
